:020000040800F2
:10000000A0450020450100088D1E00084D15000880
:10001000891E0008F9050008513B00080000000097
:100020000000000000000000000000005D32000839
:1000300059080008000000007D2000080D35000868
:100040005F0100085F0100085F0100085F01000810
:100050005F0100085F0100085F0100085F01000800
:100060005F010008B90D00085F0100085F0100088A
:100070005F0100085F0100085F0100085F010008E0
:100080005F0100085F0100085F0100085F010008D0
:100090005F0100085F0100085F0100085F010008C0
:1000A0005F0100085F0100085F0100085F010008B0
:1000B0005F0100085F0100085F0100085F010008A0
:1000C0005F0100085F0100085F0100085F01000890
:1000D0005F010008DD3700085F010008E537000810
:1000E0005F0100085F0100085F0100085F01000870
:1000F0005F0100085F0100085F0100085F01000860
:100100005F010008A52600085F0100085F010008E4
:100110005F0100085F0100085F0100085F0100083F
:100120005F0100085F0100085F0100085F0100082F
:10013000DFF80CD000F0C0F800480047095D000867
:10014000A04500200648804706480047FEE7FEE736
:10015000FEE7FEE7FEE7FEE7FEE7FEE7FEE7FEE777
:10016000B9350008310100080649074A08685043BC
:1001700043F23902104408604008704701490860A2
:1001800070470000440100206D4EC64140EA010363
:100190009B0703D009E008C9121F08C0042AFAD23D
:1001A00003E011F8013B00F8013B521EF9D2704701
:1001B000D2B201E000F8012B491EFBD270470022A9
:1001C000F6E710B513460A4604461946FFF7F0FF56
:1001D000204610BD30B505462A460B4612F8010BE5
:1001E00013F8014B08B1A042F8D01CB1002802D08E
:1001F0006D1CF1E7284630BDCAB2401E10F8011F41
:100200008A4202D00029F9D100207047421C10F820
:10021000011B0029FBD1801A704710B5002200E0B5
:10022000521C835C8C5CA34201D1002BF8D1D8B264
:10023000E1B2401A10BD30B505460020034600E08B
:100240005B1C934205D2EC5CC85C201A01D1002CE7
:10025000F6D130BD2DE9F05F0546002092469B4661
:1002600088460646814640241BE0284641464746CC
:10027000224600F042F853465A46C01A914110D324
:1002800011461846224600F029F82D1A67EB01089E
:100290004F4622460120002100F020F817EB00090C
:1002A0004E41201EA4F10104DFDC484631462A46B7
:1002B0004346BDE8F09F0000064C074D06E0E068AD
:1002C00040F0010394E8070098471034AC42F6D39D
:1002D000FFF732FFA0780008C0780008202A04DB6E
:1002E000203A00FA02F1002070479140C2F1200349
:1002F00020FA03F3194390407047202A04DB203A88
:1003000021FA02F00021704721FA02F3D040C2F135
:100310002002914008431946704770B58C1810F8B8
:10032000015B15F0070301D110F8013B2A1106D13A
:1003300010F8012B03E010F8016B01F8016B5B1E54
:10034000F9D12B0705D40023521E0DD401F8013B2F
:10035000FAE710F8013BCB1A921C03E013F8015B9B
:1003600001F8015B521EF9D5A142D8D3002070BD1F
:1003700021B1826842F00102826003E0826822F0CB
:10038000010282607047014600208A6802F0040280
:100390000AB1012000E0002070470146C86C80B21D
:1003A0007047014600208A6802F008020AB1012065
:1003B00000E000207047000010B50121480201F064
:1003C0008BFE002017490860087148714FF46020C7
:1003D00088600020C86001200874134800F026F8E7
:1003E0004FF4004001F04CFE052301220B210E4882
:1003F00000F044F801210C48FFF7BAFF0A4800F06A
:1004000099F800BF0848FFF7CCFF0028FAD106484A
:1004100000F0A0F800BF0448FFF7B5FF0028FAD1AC
:1004200010BD0000BC1800200024014030B5024679
:100430000020002350680F4C20400D790C6844EADE
:1004400005242043506090680B4C2040D1E90254B1
:100450002C434D7944EA450420439060D06A20F44F
:1004600070000C7C641EE4B2234340EA0350D06267
:1004700030BD0000FFFEF0FFFDF7F1FFF0B50446D0
:100480000D4600200021092D11DDE068A5F10A06C6
:1004900006EB4607072606FA07F18843A5F10A0688
:1004A00006EB460603FA06F10843E0600CE020691B
:1004B00005EB4507072606FA07F1884305EB4506D5
:1004C00003FA06F108432061072A0FDA606B561E13
:1004D00006EB86071F2606FA07F18843561E06EB31
:1004E000860605FA06F10843606322E00D2A0FDA5A
:1004F000206BD61F06EB86071F2606FA07F18843F6
:10050000D61F06EB860605FA06F10843206310E0C5
:10051000E06AA2F10D0606EB86071F2606FA07F130
:100520008843A2F10D0606EB860605FA06F108439C
:10053000E062F0BD816841F008018160704721B13F
:10054000826842F4A002826003E0826822F4A00282
:1005500082607047816841F004018160704700004B
:1005600000B585B00121880301F0B6FD012104200A
:1005700001F0B2FD4FF40070ADF8100018208DF8B6
:10058000130003208DF8120004A9194800F09EFE04
:100590004FF48060ADF8100004208DF8130004A91A
:1005A000134800F093FE4FF4164000900020ADF881
:1005B0000400ADF80600ADF80800ADF80C000C2002
:1005C000ADF80A0069460B4803F0CAF901F05FFC78
:1005D000012240F22551074803F09DF90121054809
:1005E00003F056F94021034803F03AF905B000BD85
:1005F000000801400038014000BFFEE770B500254B
:100600004FF4803400E0641E24B1802002F02AF808
:100610000028F8D014B90325284670BD40F2FF50D9
:1006200001F0D8FF2846F8E7014600BF0748406BB5
:1006300000F045000028F9D040F2FF50034A9063D3
:100640001046406908221040C0B270470080014047
:1006500070B500251048446B01E00F48446B04F06E
:1006600045000028F9D004F0040028B10325042037
:1006700001F0B0FF284670BD04F0010028B101254B
:10068000012001F0A7FF2846F5E740F2FF5001F0F6
:10069000A1FF2846EFE700000080014070B500256B
:1006A0000B48446B01E00A48446B04F04500002805
:1006B000F9D004F0040028B10325042001F08AFFDA
:1006C000284670BD40F2FF5001F084FF2846F8E74D
:1006D000008001402DE9F04106460F464FF000082A
:1006E0002248456B01E02148456B05F04500002894
:1006F000F9D005F0040038B14FF00308042001F0F0
:1007000069FF4046BDE8F08105F0010030B14FF0CF
:100710000108012001F05EFF4046F3E701F09CFF75
:10072000B04203D04FF010084046EBE740F2FF50D4
:1007300001F050FF002001F0A9FF044604F46040DE
:1007400018B9200C38804046DCE704F4005008B1AA
:100750001320D7E704F4804008B11020D2E704F456
:10076000004008B10F20CDE74046CBE700800140B4
:1007700070B500264FF480350F48446B02E06D1EC3
:100780000D48446B04F0450008B9002DF7D115B1B0
:1007900004F0040028B10326042001F01BFF3046BA
:1007A00070BD04F0400028B10026402001F012FF87
:1007B0003046F5E73046F3E70080014000F0805115
:1007C00011B10349086001E0024948607047000028
:1007D000040402400000024021B1026842F001021C
:1007E000026004E002684FF6FE731A400260704730
:1007F00001460020002201F0805313B1054B1A6816
:1008000001E0054B1A6802EA01030BB1012000E088
:1008100000207047000402400000024010B5002292
:10082000026847F6F0739A430C6A8B6823430C699D
:1008300023434C6923438C692343CC6923434C6A8B
:1008400023438C6A23431A430260CB6843600B68DE
:1008500083604B68C36010BD704701B502E000982B
:10086000401E009000980028F9D108BD07E0022141
:1008700000E000BF0A1EA1F10101FAD100BF011E74
:10088000A0F10100F3D1704710B500244FF40071BE
:100890000C4800F0B1FD4FF47A7005F09DFC0CE0BF
:1008A0004FF4FA73002208A108A000F055F800B137
:1008B00010BD00F0C5F9601CC4B20A2CF0DB00BF0B
:1008C000F6E70000000C01404F4B000041540000CF
:1008D00070B5A0B004460D4616462B46224607A129
:1008E00002A8009603F0A2F94FF47A73002209A13E
:1008F00002A800F031F820B070BD000041542B4335
:10090000575341503D222573222C222573222C312E
:100910002C2564004F4B000010B588B004462246D9
:1009200008A1684603F082F941F28833002209A148
:10093000684600F011F810B1012008B010BD002089
:10094000FBE7000041542B43495041503D222573A1
:10095000220000004F4B00002DE9F04106460C46F6
:1009600015461F462348B0F800046FF30E002149D6
:10097000A1F80004324620A1214803F066F81CB912
:1009800015B90120BDE8F081384605F025FC0020AE
:100990001849B1F80014C1F30E01164A5054B4B10D
:1009A000ADB121461046FFF715FC08B1012000E06B
:1009B000002040B929460F48FFF70CFC08B1012080
:1009C00000E0002008B10120DCE70020DAE744B1B4
:1009D00021460848FFF7FEFB08B10120D2E70020BE
:1009E000D0E729460348FFF7F5FB08B10120C9E726
:1009F0000020C7E7D018002025730D0A0000000072
:100A00000048004010B586B004460CB1012000E05B
:100A10000020024606A101A803F008F94FF4FA737A
:100A2000002207A101A8FFF797FF06B010BD000044
:100A300041542B4349504D55583D2564000000005A
:100A40004F4B000008B50121082001F045FB4FF491
:100A50008070ADF8000010208DF8030003208DF8A1
:100A600002006946074800F031FC0121082001F02E
:100A700033FB4FF40070ADF800006946014800F008
:100A800025FC08BD000C014000B599B06421684602
:100A9000FFF795FBFFF7D6FF00F02CF94FF400713C
:100AA0001F4800F0A9FC4FF480711D4800F0A2FC23
:100AB0004FF480711A4800F09FFCFFF7E5FE01201B
:100AC00000F082F800BF17A0FFF726FF0028FAD039
:100AD00000BF002217A119A0FFF7FAFE0028F8D0E6
:100AE0000120FFF78FFF00BF17A219A1012000F01E
:100AF000B9F80028F8D01421684600F02FF81648FD
:100B0000B0F800046FF30E001349A1F80004084682
:100B1000B0F8000420F40040A1F8000419B000BDB2
:100B2000000C01403139322E3136382E3132332E1D
:100B30003136390066696E616C0000003333303045
:100B400047726F757031000031383030000000009E
:100B50003830383000000000D01800202DE9F04176
:100B600005460F464FF4FA73002210A110A0FFF7BC
:100B7000F3FE12A11348FFF72DFB06460EB1B61D7A
:100B800002E00020BDE8F081002409E0305D285536
:100B9000285D222802D10020285503E0601CC4B241
:100BA000BC42F3DB00BF0120ECE700004F4B00002C
:100BB00041542B43494653520000000041504950D4
:100BC0002C220000D018002010B5044624B1012CBE
:100BD0000AD0022C18D10FE040F6C4130BA20EA1CC
:100BE0000EA0FFF7B9FE10BD40F6C41307A20AA17C
:100BF0000DA0FFF7B1FEF6E740F6C41303A206A16D
:100C00000CA0FFF7A9FEEEE70020ECE76E6F206373
:100C100068616E67650000004F4B000041542B4334
:100C2000574D4F44453D310041542B43574D4F44A0
:100C3000453D320041542B43574D4F44453D330011
:100C400010B54FF40071064800F0D4FB4FF4FA7071
:100C500005F0C2FA4FF40071014800F0CDFB10BD61
:100C6000000C014070B5BCB004460D461646FCB100
:100C70002B46012215A11EA802F0D8FF324618A16A
:100C8000684602F0D3FF4FF4FA73002218A11EA8A1
:100C9000FFF762FE50B14FF4FA73002214A16846C8
:100CA000FFF75AFE10B101203CB070BD0020FBE7F9
:100CB0002B46002205A11EA802F0B8FF4FF4FA73DC
:100CC00000220BA11EA8FFF747FEEDE741542B437E
:100CD00049505345525645523D25642C257300001A
:100CE00041542B43495053544F3D2573000000009D
:100CF0004F4B000000B585B00121880401F0DCF9FC
:100D00000121082001F0E8F94FF48060ADF81000EF
:100D100018208DF8130003208DF8120004A91A483A
:100D200000F0D4FA4FF40060ADF8100004208DF804
:100D3000130004A9144800F0C9FA4FF4E130009000
:100D40000020ADF80400ADF80600ADF80800ADF8DD
:100D50000C000C20ADF80A0069460C4802F000FEB9
:100D6000012240F22551094802F0D5FD012240F24E
:100D70002441064802F0CFFD00F00AF801210348A3
:100D800002F086FD05B000BD000C014000480040A7
:100D900008B54FF4A06001F0D9F827208DF80000C5
:100DA00000208DF801008DF8020001208DF803006D
:100DB000684601F093F808BD10B5082000F038F837
:100DC00000B31148007878B9102010494861082014
:100DD0000F49086001200C49087008200C49086080
:100DE00010200A4908610AE007480078012806D166
:100DF00008200749091D08600220034908700820DF
:100E000000F008F810BD00002D0100200010014086
:100E100010140140014908607047000014040140AB
:100E2000024909680143014A1160704710040140FA
:100E3000014600200022074B1B6803EA0102054B14
:100E400014331B680B4013B10AB1012000E00020ED
:100E50007047000000040140002123498279002AE4
:100E60003AD00A46126803689A430B461A600A1D74
:100E7000126803689A430B1D1A60027911440A68CC
:100E800003681A430A60184A0832126803689A43D2
:100E9000154B08331A601A1D126803689A43124BE7
:100EA0000C331A604279102A0ED11A1F1268036897
:100EB0001A430D4B08331A601A1D126803681A434F
:100EC000094B0C331A600DE00749427911440A6856
:100ED00003681A430A6005E0027911440A6803684E
:100EE0009A430A60704700000004014008B50121E0
:100EF0003C2001F0F1F810208DF8030003208DF85C
:100F000002000820ADF8000069461A4800F0DEF93A
:100F10001020ADF800006946174800F0D7F904200A
:100F2000ADF800006946134800F0D0F92020ADF874
:100F300000006946104800F0C9F90820ADF800002B
:100F400069460E4800F0C2F94FF2A300ADF8000068
:100F500004208DF8030003208DF80200694608483C
:100F600000F0B4F908200349143108600349103136
:100F7000086008BD00080140001001400014014055
:100F8000000C014051B18200A2F1C042126842F04F
:100F900001038200A2F1C042136009E08200A2F1C5
:100FA000C0421268034B1A408300A3F1C0431A6089
:100FB00070470000FEFF0F00D0E901121143C26824
:100FC0001143026911434269114382691143C269A5
:100FD0001143026A1143426A1143826A1143C26A91
:100FE0001143026B114302689200A2F1C0421160EA
:100FF000816808290BD101688900A1F1C041096805
:1010000041F0400201688900A1F1C0410A60416BD2
:101010000968426B526841EA0211426B926841EAE8
:101020000221426B928941EA0241426B128A41EAF3
:101030000251426B127D41EA0261426B9269114397
:101040000268521C9200A2F1C0421160C16AB1F55F
:10105000804F1BD1816B0968826B526841EA021193
:10106000826B926841EA0221826B128A41EA025144
:10107000826B127D41EA0261826B926911430268C0
:101080009200A2F1C042C2F8041107E06FF0704272
:1010900001688900A1F1C041C1F804217047000036
:1010A0002DE9FC4107460D46002600240020009053
:1010B000019008205D490860102048604020886049
:1010C0000020C8604FF480600861084601F01CFBF6
:1010D0001020FFF7A9FA044614B12046BDE8FC81B0
:1010E0005348008800045149086037204860402078
:1010F00088600020C8604FF480600861084601F0F5
:1011000003FB3720FFF790FA04460CB12046E5E7D1
:101110004FF0FF3047490860082048603020886061
:101120000220C8600020086101204861084601F0E3
:1011300069FA00203D4908603320486040208860FB
:101140000020C8604FF480600861084601F0DCFAB6
:101150003320FFF769FA04460CB12046BEE70CE0E5
:101160004FF4001001F07EFA38B101F0C7FA4DF8E3
:101170002600761C012E00D906E02F48406B40F275
:101180002A6108400028EBD000BF082001F06AFA6D
:1011900028B1082001F01EFA042420469EE7022010
:1011A00001F060FA28B1022001F014FA022420466E
:1011B00094E7202001F056FA28B1202001F00AFA25
:1011C000062420468AE74FF4007001F04BFA30B154
:1011D0004FF4007001F0FEF9072420467EE740F24C
:1011E000FF5001F0F7F900980006009901F47F41E3
:1011F00040EA0120009901F47F0140EA11200099A2
:1012000040EA1160686001980006019901F47F418D
:1012100040EA0120019901F47F0140EA112001997F
:1012200040EA11602860204658E700007441002021
:1012300034010020884100200080014008B50121D0
:10124000302000F049FF4FF4F850ADF800000320C3
:101250008DF8020018208DF803006946094800F057
:1012600035F80420ADF800006946074800F02EF874
:101270000121880200F010FF0121022000F00CFF84
:1012800008BD0000001001400014014030B50022EC
:101290008B071C0F0F2303FA04F20B4B8C1053F82F
:1012A00024309343084C8D1044F8253023468C108D
:1012B00053F824308C07240F00FA04F42343024C23
:1012C0008D1044F8253030BD080001402DE9F04173
:1012D000024600250026002000230024002791F864
:1012E00003C00CF00F0591F803C00CF0100CBCF11A
:1012F000000F03D091F802C04CEA050591F800C038
:10130000BCF1000F31D0146800202BE04FF0010C2D
:101310000CFA00F3B1F800C00CEA03069E4220D19B
:1013200083004FF00F0C0CFA03F7BC4305FA03FCE3
:101330004CEA040491F803C0BCF1280F06D14FF029
:10134000010C0CFA00FCC2F814C00AE091F803C0CA
:10135000BCF1480F05D14FF0010C0CFA00FCC2F8AB
:1013600010C0401C0828D1D31460B1F800C0BCF1F3
:10137000FF0F34DD546800202EE000F1080C4FF020
:10138000010808FA0CF3B1F800C00CEA03069E420B
:1013900021D183004FF00F0C0CFA03F7BC4305FA80
:1013A00003FC4CEA040491F803C0BCF1280F05D1FA
:1013B00000F1080C08FA0CF8C2F8148091F803C088
:1013C000BCF1480F07D100F1080C4FF0010808FAF2
:1013D0000CF8C2F81080401C0828CED35460BDE839
:1013E000F0810246002093680B400BB1012000E021
:1013F00000207047416170470161704708B50121C5
:10140000042000F069FE4FF40060ADF800000420F5
:101410008DF8030003208DF8020069460848FFF7A5
:1014200055FF4FF48050ADF8000010208DF80300F8
:1014300003208DF8020069460148FFF747FF08BD09
:101440000008014010B5FFF7D9FFFFF789F8002425
:1014500016E004EBC40101EB04120F4901EB42005A
:101460000EA102F0E3FB04EBC40101EB04120A49F4
:10147000FA3101EB420009A102F0D8FB601CC4B2B2
:10148000052CE6DB0020044940390870012104A046
:1014900000F00AF810BD00009801002020000000B4
:1014A00041540D0A000000002DE9F84305460C46A2
:1014B0004FF005094FF0010833E04FF48051204808
:1014C000FFF79AFF0A2004F087FE29461D4802F024
:1014D00050FB002621E00A2004F07EFE684604F05E
:1014E0001BFB0746BDF80000002811DD387818B155
:1014F00000BF00BF00BF00BF13A13846FEF76AFE61
:1015000048B1012C01D102F0A3FE0020BDE8F88310
:10151000642004F061FE701CC6B2142EDBDB00BF39
:1015200000BFB9F10000A9F1010101F0FF09C4D128
:1015300000BF00BF012C01D102F08AFE4046E5E762
:1015400000080140003801404F4B000000BFFEE79B
:101550002DE9F05F81468A4614461D46DDF828B025
:101560002B4622465146484600F055FA2C2000F002
:10157000CDFB002654E000274EE000BF4FF00008EE
:1015800020202949486129480068C007C00D274923
:10159000096801F0020140EA01202449096801F0CC
:1015A000200140EA41102149096801F0800140EA28
:1015B00001101E49096801F4704140EA0108202029
:1015C0001949086148611948006800F0010017498D
:1015D000096801F0020108431449096801F020017B
:1015E00040EAD1001149096801F0800140EA111078
:1015F0000E49096801F4704140EA112040EA0808E8
:1016000020200949086100BFBBF1000F02D040460D
:1016100000F080FB781C87B2AF42AEDB701C86B254
:10162000A642A8DBBDE8F09F00100140080C014075
:1016300010B504462CB14FF480510548FFF7DAFE8F
:1016400004E04FF480510248FFF7D6FE10BD0000C1
:10165000001401402DE9F0430746884614461D4614
:10166000DDF81C902B4622464146384600F0D3F95F
:1016700004FB05F24B4600262C2000F047FB00BF80
:1016800003E0184600F046FB761C9642F9D300BFF3
:10169000BDE8F0832DE9F047804689461546A5F15F
:1016A000200000F0FF0A102308224946404600F0BF
:1016B000B2F92C2000F02AFB002417E00D4800EBC3
:1016C0000A10065D00270DE006F0010018B11F208A
:1016D00000F020FB03E04FF6FF7000F01BFB7610DC
:1016E000781CC7B2082FEFDB601CC4B2102CE5DBFE
:1016F000BDE8F0871469000870B505460E4614462B
:1017000017E028460830F02803DD002506F1100018
:1017100086B230461030B0F5A07F01DD00250026EE
:10172000227831462846FFF7B5FF641C05F1080012
:1017300085B220780028E4D170BD00B597B00121B2
:10174000080200F0A9FC0220019000200290052070
:10175000039000200490059006904FF08050079071
:1017600000200890099008200A9010200B9000207B
:101770000C900E900F9010904FF48050119000201C
:1017800012901390149001A81590169008A8FFF7D6
:1017900013FC01210020FFF7F5FB17B000BD00008E
:1017A00008B50121084600F097FC0121602000F0F7
:1017B00093FC03208DF8020018208DF803004CF2F2
:1017C0000370ADF8000069462C48FFF77FFD4FF627
:1017D0008070ADF8000069462948FFF777FD0320C7
:1017E0008DF8020018208DF803001020ADF80000DD
:1017F00069462248FFF76AFD2020ADF800006946DF
:101800001E48FFF763FD0121202000F065FC8020C9
:10181000ADF8000069461948FFF758FD0121202066
:1018200000F05AFC4FF40060ADF800006946134820
:10183000FFF74CFD10208DF8030003208DF8020007
:101840000121402000F048FC0220ADF8000069466C
:101850000B48FFF73BFD10208DF8030003208DF8A7
:1018600002000121202000F037FC4FF48050ADF839
:10187000000069460148FFF729FD08BD001401403A
:101880000018014070B504460D4601231A4629464A
:10189000204600F0C0F800F009FA0646304670BD58
:1018A00000B50246012A06D0022A29D0032A4CD0CC
:1018B000042A24D16EE0362000F028FAC82000F077
:1018C00029FA2A2000F022FA002000F023FA002052
:1018D00000F020FA002000F01DFAEF2000F01AFAC4
:1018E0002B2000F013FA002000F014FA002000F082
:1018F00011FA012000F00EFA3F2000F00BFA6EE022
:10190000362000F003FA682000F004FA2A2000F0E4
:10191000FDF9002000F0FEF9002000F0FBF90120A5
:1019200000F0F8F93F2000F0F5F92B2000F0EEF977
:10193000002000F0EFF9002000F0ECF9002000F0AA
:10194000E9F9EF2000F0E6F949E0362000F0DEF991
:10195000282000F0DFF92A2000F0D8F9002000F05C
:10196000D9F9002000F0D6F9012000F0D3F93F208A
:1019700000F0D0F92B2000F0C9F9002000F0CAF9DE
:10198000002000F0C7F9002000F0C4F9EF2000F0BB
:10199000C1F924E0362000F0B9F9482000F0BAF986
:1019A0002A2000F0B3F9002000F0B4F9002000F084
:1019B000B1F9002000F0AEF9EF2000F0ABF92B20D8
:1019C00000F0A4F9002000F0A5F9002000F0A2F931
:1019D000012000F09FF93F2000F09CF900BF00BFFC
:1019E0002C2000F093F900BD08B5FFF7D9FEFFF7F2
:1019F000A4FE0120FFF71CFE00F074F900F038F897
:101A00004FF6FF704FF4A073F022002100900846BB
:101A1000FFF720FE08BD30B504460D462A2000F031
:101A200075F9201200F076F9E0B200F073F9A11810
:101A3000491EC1F30F2000F06DF9A118491EC8B26C
:101A400000F068F92B2000F061F9281200F062F92B
:101A5000E8B200F05FF9E918491EC1F30F2000F069
:101A600059F9E918491EC8B200F054F930BD000018
:101A700000B5CF2000F04AF9002000F04BF981209A
:101A800000F048F9302000F045F9ED2000F03EF973
:101A9000642000F03FF9032000F03CF9122000F030
:101AA00039F9812000F036F9E82000F02FF985207F
:101AB00000F030F9102000F02DF9782000F02AF91C
:101AC000CB2000F023F9392000F024F92C2000F07D
:101AD00021F9002000F01EF9342000F01BF902204B
:101AE00000F018F9F72000F011F9202000F012F9A9
:101AF000EA2000F00BF9002000F00CF9002000F0C3
:101B000009F9B12000F002F9002000F003F91B20D0
:101B100000F000F9B62000F0F9F80A2000F0FAF819
:101B2000A22000F0F7F8C02000F0F0F8352000F017
:101B3000F1F8C12000F0EAF8112000F0EBF8C52020
:101B400000F0E4F8452000F0E5F8452000F0E2F868
:101B5000C72000F0DBF8A22000F0DCF8F22000F053
:101B6000D5F8002000F0D6F8262000F0CFF80120AC
:101B700000F0D0F8E02000F0C9F80F2000F0CAF81B
:101B8000262000F0C7F8242000F0C4F80B2000F055
:101B9000C1F80E2000F0BEF8092000F0BBF8542078
:101BA00000F0B8F8A82000F0B5F8462000F0B2F830
:101BB0000C2000F0AFF8172000F0ACF8092000F07E
:101BC000A9F80F2000F0A6F8072000F0A3F80020E5
:101BD00000F0A0F8E12000F099F8002000F09AF859
:101BE000192000F097F81B2000F094F8042000F072
:101BF00091F8102000F08EF8072000F08BF82A20D2
:101C000000F088F8472000F085F8392000F082F8CD
:101C1000032000F07FF8062000F07CF8062000F09A
:101C200079F8302000F076F8382000F073F80F20B3
:101C300000F070F8362000F069F8C82000F06AF86B
:101C40002A2000F063F8002000F064F8002000F083
:101C500061F8002000F05EF8EF2000F05BF82B2028
:101C600000F054F8002000F055F8002000F052F881
:101C7000012000F04FF83F2000F04CF83A2000F02F
:101C800045F8552000F046F8112000F03FF80348D1
:101C9000FEF7E3FD292000F039F800BDFCBF02008B
:101CA00001480088704700000000026010B5002263
:101CB000002300242E2000F029F8FFF7F1FF024650
:101CC000FFF7EEFF0246FFF7EBFF0446FFF7E8FFE2
:101CD0000346D012C002991240EA411040EAE420C3
:101CE00010BD000010B502210648FFF783FB06482F
:101CF000FEF7B3FD02210348FFF77EFB0248FEF723
:101D0000ACFD10BD00180140FCBF02004FF0C04107
:101D10000880704701490880704700000000026099
:101D200008B50121082000F0D7F92020ADF8000007
:101D300010208DF8030003208DF8020069460F483B
:101D4000FFF7C4FA0120ADF8000069460B48FFF721
:101D5000BDFA0220ADF8000069460848FFF7B6FA60
:101D600020210648FFF748FB01210448FFF744FB08
:101D700002210248FFF740FB08BD0000000C0140B3
:101D80001FB50121042000F0A7F94020ADF80C0098
:101D900018208DF80F0003208DF80E0003A9354898
:101DA000FFF794FA0121022000F086F97720ADF8C0
:101DB00004000020ADF80000ADF80600ADF8020008
:101DC00069462D4801F0A4FC60202C4908800120C0
:101DD00048802420C88000200881274801F028FC82
:101DE0000121254801F018FC8021234801F075FCF1
:101DF0002021214801F07AFC0121082000F06CF933
:101E00004020ADF80C0018208DF80F0003208DF84D
:101E10000E0003A91A48FFF759FA0121042000F027
:101E20004BF942F6E060ADF804000020ADF8000088
:101E3000ADF80600ADF802006946124801F068FCF2
:101E400060200E4908800120488040F2EE20C880C2
:101E5000002008810B4801F0EBFB0521094801F047
:101E60004EFC2021074801F02FFC0121054801F01C
:101E7000D3FB1FBD0008014000040040AC18002047
:101E8000000C01400008004000BFFEE7704708B5A5
:101E90004FF4E06000F05AF825208DF80000012092
:101EA0008DF801008DF802008DF80300684600F0FF
:101EB00015F808BD08B54FF4C06000F047F83120B0
:101EC0008DF8000000208DF801008DF8020001203F
:101ED0008DF80300684600F001F808BD70B50021D8
:101EE00000230F22C47804B3154C246804F4E06482
:101EF000C4F5E064210AC1F10403CA40447804FA3D
:101F000003F184781440214309010E4C0678A15551
:101F1000047804F01F050124AC4005786D11AD0074
:101F200005F1E025C5F8004109E0047804F01F053B
:101F30000124AC40044D0678761145F8264070BD6A
:101F40000CED00E000E400E080E100E00249014324
:101F5000024A1160704700000000FA050CED00E035
:101F600008B54FF2A300ADF8000010208DF8030073
:101F700003208DF8020069460148FFF7A7F908BD64
:101F8000000C014010B500F03DF9FEF7AFFF01F085
:101F9000FFFD10BD2DE9F84306460F4614461D46C9
:101FA000DDF82080B8F1000F04D14621122000F0A6
:101FB0005BFA03E00621122000F056FA17220121F5
:101FC000684600F051F99DF8000000EBA60000F013
:101FD000FF094946172000F047FAC4F3870118208B
:101FE00000F042FA19220121684600F03DF99DF8FF
:101FF000000000EB670000F0FF094946192000F0DF
:1020000033FAC5F347011A2000F02EFA32220121DB
:10201000684600F029F904F003009DF80010084319
:1020200005F0010140EA810006F0030140EA0110D9
:1020300007F0010140EA81194946322000F014FA04
:10204000C4F38701292000F00FFAC5F347012C20C3
:1020500000F00AFA2A220121684600F005F904F08E
:1020600003009DF80010084305F0010140EA8109D2
:1020700049462A2000F0F8F9BDE8F88370470000CF
:1020800001460020034A506820F440400843506055
:10209000704700000010024029B1064A526902430D
:1020A000044B5A6104E0034A52698243014B5A616E
:1020B000704700000010024029B1064AD26902436D
:1020C000044BDA6104E0034AD2698243014BDA61CE
:1020D000704700000010024029B1064A926902438D
:1020E000044B9A6104E0034A92698243014B9A616E
:1020F000704700000010024030B50021002200248B
:1021000000232D4D6D6805F00C0121B1042905D087
:10211000082923D105E0294D056022E0274D0560FF
:102120001FE0254D6D6805F47012234D6D6805F4B0
:102130008034022505EB92421CB9214D55430560C0
:102140000BE01D4D6D6805F400351DB11C4D554368
:10215000056002E0194D5543056002E0174D05602A
:1021600000BF00BF144D6D6805F0F0010909154D61
:102170006B5C0568DD4045600F4D6D6805F4E061FE
:10218000090A104D6B5C4568DD4085600A4D6D683D
:1021900005F46051C90A0B4D6B5C4568DD40C560B4
:1021A000054D6D6805F44041890B074D6B5CC568B2
:1021B000B5FBF3F5056130BD0010024000127A0056
:1021C00000093D00140000202400002010B540212B
:1021D0000B48FFF70FF900F067F980210848FFF777
:1021E00009F900F061F940210548FFF705F900F011
:1021F0005BF940210248FFF7FDF800F055F910BDEA
:102200000010014008B501211020FFF765FFC02034
:10221000ADF8000003208DF8020014208DF80300B3
:1022200069460248FFF752F808BD0000001001405F
:1022300010B540210B48FFF7DDF800F035F980219B
:102240000848FFF7D9F800F02FF940210548FFF7BB
:10225000D3F800F029F940210248FFF7CBF800F04D
:1022600023F910BD0010014070B505460C46164616
:1022700000F08EF808B9002070BD422000F05CF834
:1022800000F0CCF818B900F0ADF80020F4E73046C3
:1022900000F052F800F0C2F800F0A4F800F078F86E
:1022A00008B90020E8E7432000F046F800F0B6F84F
:1022B00018B900F097F80020DEE70CE000F012F803
:1022C0002870012C02D1FFF7B3FF01E0FFF77EFF7A
:1022D0006D1C601E84B2002CF0D100F083F8012048
:1022E000CAE7000070B50825002480211148FFF7D7
:1022F00083F814E06006040E40210E48FFF77AF8D8
:1023000000F0D2F840210B48FFF776F800F0CCF847
:1023100080210848FFF765F808B144F00104281E41
:10232000A5F10101CDB2E5D140210248FFF762F8E5
:10233000204670BD0010014070B5044608251BE022
:1023400040211248FFF756F800F0AEF804F0800084
:1023500020B180210D48FFF74FF803E080210B48A2
:10236000FFF748F86006040E00F09EF84021074889
:10237000FFF742F800F098F8281EA5F10101CDB250
:10238000DED140210148FFF735F870BD0010014053
:1023900010B580211248FFF72FF840211048FFF7B1
:1023A0002BF800F081F880210D48FFF71AF808B9E2
:1023B000002010BD80210A48FFF71CF800F074F8D7
:1023C00080210748FFF70DF808B10020F1E78021D0
:1023D0000348FFF70FF800F067F80120E9E7000075
:1023E0000010014010B540210B48FFF703F800F042
:1023F0005BF880210848FEF7FDFF00F055F840210A
:102400000548FEF7F9FF00F04FF880210248FEF77B
:10241000F3FF00F049F810BD0010014010B5402155
:102420001048FEF7E7FF00F03FF880210D48FEF767
:10243000E3FF00F039F840210A48FEF7DDFF00F025
:1024400033F880210748FEF7CCFF28B1402105482A
:10245000FEF7D0FF002010BD40210248FEF7CAFF62
:102460000120F8E70010014070B504460D46FFF763
:102470008FFF08B9002070BD4220FFF75DFFFFF716
:10248000CDFF18B9FFF7AEFF0020F4E7E0B2FFF789
:1024900053FFFFF7C3FF2846FFF74EFFFFF7BEFFCE
:1024A000FFF7A0FF0120E6E74FF4C87001E0411EEE
:1024B00088B20028FBD170477CB505460024002077
:1024C0000090019000F0E2F800F0007010B10E24CE
:1024D00020467CBD3D49098888B26946FEF7E0FD8B
:1024E00004460CB12046F4E7012D36D1019800F4E2
:1024F000802000282ED03548008800043449086028
:1025000037204860402088600020C860A802086129
:10251000084600F0F9F83720FEF786F804460CB1BB
:102520002046D6E702202A4908600620486040205D
:1025300088600020C8604FF480600861084600F0A1
:10254000E3F80620FEF770F804460CB12046C0E719
:102550002046BEE725242046BBE7019800F48030E2
:1025600078B31A4800880004194908603720486089
:10257000402088600020C8604FF4806008610846F1
:1025800000F0C2F83720FEF74FF804460CB12046A1
:102590009FE700200E4908600620486040208860C0
:1025A0000020C8604FF480600861084600F0ACF875
:1025B0000620FEF739F804460CB1204689E720468C
:1025C00087E7FFE72524204683E700003401002049
:1025D0007441002001498863704700000080014079
:1025E000014988637047000000800140014908608C
:1025F00070470000A00030420149086070470000A9
:102600008C05304200210A4B02685A6242689A6285
:102610001A46D16A21F0F701D0E902231A4303696F
:102620001A4343691A431143014AD16270470000BB
:102630000080014000200649086048608860C8604A
:1026400048628862C862034888630020C863704794
:1026500000800140FF07C00001480069C0B2704718
:102660000080014001460020034A526B0A400AB133
:10267000012000E00020704700800140024800680F
:1026800000F00300704700000080014008B50146DB
:10269000002000900248084400900098006808BD9F
:1026A0001480014010B500F027FC10BD29B1064A86
:1026B000D26B0243044BDA6304E0034AD26B8243D9
:1026C000014BDA63704700000080014000210A4A94
:1026D000516847F6FF629143027D83681A4343685D
:1026E0001A43C3681A4303681A4303691A43114320
:1026F000014A5160704700000080014001480068B5
:1027000070470000808001400021094B02689A60F8
:102710001A46D1686FF30A01D0E901231A43C3684E
:102720001A4303691A431143014AD16070470000FC
:10273000008001400549096821F00301034A116046
:102740001146096801431160704700000080014094
:1027500010B50248FEF74CF810BD00000020001034
:1027600030B58BB005460C461348FEF727F800211C
:102770001248FEF731F812480090019500200290AF
:10278000A00803900020049080200590800006900F
:1027900080000790002008904FF40050099000201E
:1027A0000A9069460548FEF739F801210348FEF70B
:1027B00013F80BB030BD000000F0001044040240DC
:1027C0008080014030B58BB005460C461348FDF7BC
:1027D000F5FF00211248FDF7FFFF12480090019518
:1027E00010200290A0080390002004908020059003
:1027F0008000069080000790002008904FF4005061
:10280000099000200A9069460548FEF707F8012163
:102810000348FDF7E1FF0BB030BD000000F00010F1
:10282000440402408080014070B5044600252148E0
:102830000068032802D12725284670BD1D4800687E
:1028400038B11C480068012803D01A4800680228E3
:102850002ED1B4F5805F02D127252846EDE7B4F5E7
:10286000006F14D10120FFF727FE054605BB0120AC
:102870001149087500200860486088604FF40060C6
:10288000C860002008610846FFF720FF10E0002024
:10289000FFF712FE05465DB90120074908750020C3
:1028A000086048608860C86008610846FFF70EFF4E
:1028B0002846C2E7300100205C41002030B50146C7
:1028C00000200022AC4B1B7881F84E30AB4B1B88AC
:1028D000A1F84C30AA4B1B681A0E93090B70C2F377
:1028E00083034B7002F003038B70A54B1B68C3F38B
:1028F0000742CA70A24B1B88C3F307220A71A04B80
:102900001A784A715B681A0E1301CB809C4B5B6886
:10291000C3F30742CB8843EA1213CB8002F00F03C4
:102920000B72974B9B88C3F30722D3094B72C2F3F8
:1029300080138B72C2F34013CB72C2F300130B737C
:1029400000234B738C4B1B681BB18B4B1B68012BFB
:102950003CD193071B0D0B61894B1A790B6943EA34
:1029600082030B61864B9B681A0E0B6943EA921334
:102970000B61C2F3C2030B7502F007034B75804B6A
:102980009B68C3F3074253098B75C2F38203CB756F
:1029900093075B0F0B767A4B1B89C3F307220B7EE1
:1029A00043EAD2130B760B695B1C4B640C7E4B6CB9
:1029B000A41C0125A5406B434B640C7A0123A34062
:1029C0008B64D1E9113463434B6421E06A4B1B688B
:1029D000022B1DD16A4B1A7993069B0A0B61684B37
:1029E0009B681A0E0B6943EA02230B61644B9B68D8
:1029F000C3F307420B6913430B61614B1B89C3F39C
:102A000007220B695B1CDB044B644FF400738B647F
:102A1000C2F3801301F8193F93065B0E4B70584BBD
:102A20001A7A4B7843EAD2134B7002F07F038B7013
:102A3000534BDB681A0ED309CB70C2F341130B71F1
:102A4000C2F382034B7193071B0F8B714C4BDB68F6
:102A5000C3F307428B7943EA92138B71C2F340139D
:102A6000CB7100230B7202F001034B72444B9B8924
:102A7000C3F30722D3098B72C2F38013CB72C2F364
:102A800040130B73C2F300134B73C2F381038B73B8
:102A900002F00303CB733A4B1A7B53080B740123E8
:102AA0004B74384B1B681A0ECA741939354B1B68A6
:102AB000C3F307421402CC85324B1B88C3F30722B1
:102AC000CB8D1343CB852F4B1A7814060C635B68B0
:102AD0001A0E0B6B43EA02440C632A4B5B68C3F388
:102AE00007420B6B43EA02240C63264B9B88C3F31B
:102AF00007220B6B13430B63224B1A7934235A546E
:102B0000204B9B681A0E35235A541E4B9B68C3F307
:102B1000074214068C631B4B1B89C3F307228B6B84
:102B200043EA02448C63174B1A7A8B6B43EA022404
:102B30008C63144BDB681A0E8B6B13438B63114B46
:102B4000DB68C3F307423C235B5C43EA12143C237B
:102B50005C5413071C0DCC870A4B9B89C3F30722D7
:102B6000CB8F1343CB87074B1A7B540840235C540D
:102B7000012441235C5430BD300100203401002089
:102B8000DC400020EC40002008B5002000906846A2
:102B900000F06CFA08B1FF2008BD0098C0F3432094
:102BA000FAE710B50424FFF7EFFF0446042C01D127
:102BB000002010BDFF2C01D10220FAE70120F8E728
:102BC00010B50024FFF776F9FEF738FBFFF732FD6A
:102BD00000F0CEF804460CB1204610BD00F02AF8F3
:102BE00004460CB12046F8E7012010490875002082
:102BF000086048608860C86008610846FFF766FDA5
:102C00001CB90B48FFF75AFE044634B90849B1F81D
:102C10004C10080400F010FA044624B94FF4006088
:102C2000FFF702FE04462046D7E700005C41002083
:102C30000C41002038B5002401200090FFF71EFD54
:102C400010B92524204638BD44480068042828D0FF
:102C500000204349086002204860C02088600020AE
:102C6000C8604FF4806008610846FFF74DFDFDF72E
:102C7000EFFC04460CB12046E5E70020FFF706FD17
:102C8000384908600420FFF701FD364948600820F4
:102C9000FFF7FCFC334988600C20FFF7F7FC314953
:102CA000C8602E48006858B12C480068012807D039
:102CB0002A480068062803D028480068022816D150
:102CC00000202749086003204860402088600020D9
:102CD000C8604FF4806008610846FFF715FD69463B
:102CE0000320FDF7F7FC04460CB12046ABE71B4878
:102CF000006804282ED0BDF800001B490860BDF80C
:102D0000000000041649086009204860C02088605F
:102D10000020C8604FF4806008610846FFF7F4FCAB
:102D2000FDF796FC04460CB120468CE70020FFF727
:102D3000ADFC0E4908600420FFF7A8FC0B49486071
:102D40000820FFF7A3FC094988600C20FFF79EFCD0
:102D50000649C8600024204675E7000030010020C5
:102D600074410020EC40002034010020DC400020B1
:102D70002DE9F0410024002600250027A046B220BE
:102D8000594908750020086048608860C86008617B
:102D90000846FFF79BFC0320FFF7CCFC0120FFF760
:102DA00025FC00205149086048608860C8604FF4E5
:102DB000806008610846FFF7A7FCFDF71FFC04468A
:102DC00014B12046BDE8F0814FF4D5704749086042
:102DD00008204860402088600020C8604FF4806070
:102DE00008610846FFF790FCFDF7C2FC04462CB9C9
:102DF00001203F4908604FF0804812E000203B4925
:102E0000086037204860402088600020C8604FF488
:102E1000806008610846FFF777FC3720FDF704FC67
:102E2000044600203149086037204860402088600F
:102E30000020C8604FF4806008610846FFF764FC1A
:102E40003720FDF7F1FB0446002C4AD136E0002084
:102E50002649086037204860402088600020C8600C
:102E60004FF4806008610846FFF74EFC3720FDF7FD
:102E7000DBFB04460CB12046A4E71E4848EA0000EC
:102E80001A49086029204860402088600020C860F6
:102E90004FF4806008610846FFF736FCFDF7FEFB43
:102EA00004460CB120468DE70020FFF7EFFB0646F5
:102EB000012080EAD67080F001076D1C1FB94FF623
:102EC000FF708542C3D34FF6FF70854202D31B24A7
:102ED000204677E706F08040061E02D00220044913
:102EE000086020466EE700005C410020744100202D
:102EF000300100200000108010B511480068012842
:102F00000BD100200F49886040F24C40C8600C2073
:102F1000FDF78AFB0C49087002E000200A4908709E
:102F20004FF48070FFF75CFB00214FF48070FFF7D7
:102F3000BDFB0120054908600348007810BD000072
:102F400038010020008001403C01002040010020A9
:102F50002DE9F04180460D4614461E46002700200C
:102F60002E4908702E49086001202E490860002073
:102F70002D49C8622D480068022801D104026D0A5B
:102F80002B48046010202A494860402088600020B7
:102F9000C8604FF4806008610846FFF7B5FB102059
:102FA000FDF742FB074617B13846BDE8F0814FF008
:102FB000FF302049086006FB04F0486090208860DC
:102FC0000220C86000200861012048610846FFF720
:102FD00019FB174805601220154948604020886099
:102FE0000020C8604FF4806008610846FFF78CFB42
:102FF0001220FDF719FB07460FB13846D5E701212E
:103000000802FFF753FB0120FFF7F6FA06FB04F175
:103010004046FFF7A5FB3846C7E700003C0100200B
:1030200040010020380100200080014030010020D4
:10303000744100208841002070B5044600250A48EC
:103040000460072008494860402088600020C8606C
:103050004FF4806008610846FFF756FB0720FDF734
:10306000E3FA0546284670BD7441002070B5044659
:1030700000250A48008800040949886040F24D4054
:10308000C8600D20FDF7D0FA05460DB1284670BD89
:103090000348406920602846F9E700003401002019
:1030A0000080014010B5002400BFFFF751FB30B98C
:1030B0000748006818B9074800780028F5D0054887
:1030C000007810B10348007810BD2046FCE70000EE
:1030D000400100203C01002010B5002400BFFFF794
:1030E00037FB30B90948006818B90948007800284A
:1030F000F5D00748007810B10548007810BD40F2BF
:10310000FF50FFF767FA2046F8E700004001002073
:103110003C0100202DE9F84380460F4615461E4627
:1031200000240020009045490870454908600120AE
:103130004449086000204449C862444800680228A5
:1031400001D105027F0A42480560102040494860CD
:10315000402088600020C8604FF480600861084605
:10316000FFF7D2FA1020FDF75FFA044614B12046AB
:10317000BDE8F883374800880004354908603720E7
:103180004860402088600020C8604FF4806008617B
:103190000846FFF7B9FA3720FDF746FA04460CB1A6
:1031A0002046E5E72A480660172029494860402064
:1031B00088600020C8604FF4806008610846FFF70F
:1031C000A3FA1720FDF730FA04460CB12046CFE7EA
:1031D0001F48076019201E49486040208860002071
:1031E000C8604FF4806008610846FFF78DFA192027
:1031F000FDF71AFA04460CB12046B9E74FF0FF304C
:103200001549086006FB05F04860902088600020A2
:10321000C8600861012048610846FFF7F3F9012101
:103220000802FFF743FA0120FFF7E6F906FB05F174
:103230004046FFF7C7FA20469AE700003C0100200D
:1032400040010020380100200080014030010020B2
:1032500074410020340100208841002070470000A4
:103260002DE9FF4F95B014461D4638225DA107A8F1
:10327000FCF78CFF002001902046E11704EB9171D0
:103280008910A4EB810204FB05F101EB410105FB70
:10329000021101F13607F8B28DF81E00380A8DF8D8
:1032A0001F00380C8DF82000380E8DF82100A04644
:1032B00008F0FF008DF82E004FEA18208DF82F003F
:1032C0004FEA18408DF830004FEA18608DF8310051
:1032D000A94609F0FF008DF832004FEA19208DF859
:1032E00033004FEA19408DF834004FEA19608DF829
:1032F00035000A224948229901F06EFD48490870BC
:10330000464801F02AFD02224448229901F064FD5A
:103310004349087008460078002860D102AB362285
:1033200007A93E4801F06FFE3D4908702046E117AD
:1033300004EB91718910A4EB810101F0FF0B0026D1
:1033400044E00020069032E0169A2A44521E921B56
:1033500091B2069B159A1A4490B2FEF793FA8246F0
:103360004FEADA20C0000590CAF3451080000490AF
:103370004FEACA60000E039002AB012203A927485E
:1033800001F041FE2649087002AB012204A923483E
:1033900001F039FE2249087002AB012205A91F483D
:1033A00001F031FE1E4908700698401C06900698F0
:1033B000A042C9DBBBF1000F07D05A4602AB01A9FE
:1033C000164801F020FE16490870761CAE42B8DBA4
:1033D000124801F0C2FC002019B0BDE8F08F4FF098
:1033E000FF30F9E7424D0000000000000000360009
:1033F00000002800000000000000000000000100A4
:1034000018000000000000000000000000000000A4
:1034100000000000000000000000000094200020D8
:103420007200002010B500F001F810BD0CB50020AE
:10343000019000903348006840F4803031490860C2
:1034400000BF3048006800F4003000900198401C34
:103450000190009818B90198B0F5A06FF1D12948F2
:10346000006800F4003010B10120009001E000205D
:1034700000900098012843D12348006840F01000D4
:10348000214908600846006820F0030008600846EB
:10349000006840F0020008601A4840681949486016
:1034A0000846406848600846406840F480604860CC
:1034B0000846406820F47C1048600846406840F4A4
:1034C000E81048600846006840F08070086000BF5F
:1034D0000C48006800F000700028F9D009484068E6
:1034E00020F00300074948600846406840F00200A9
:1034F000486000BF0348406800F00C000828F9D17C
:103500000CBD0000001002400020024010B500F089
:1035100059F900F04FF900240CE0084850F8240055
:1035200030B1064850F82400401E044941F82400F8
:10353000601CC4B2032CF0DB10BD00004C01002065
:1035400030B51A4800684FF47A72B0FBF2F1B1F16D
:10355000807F01D301201DE021F07F40401E4FF00D
:10356000E022506150170F22002807DA13071D0EC2
:103570000F4B00F00F04241F1D5503E013071C0E12
:103580000C4B1C5400BF00204FF0E022906107203C
:103590001061002008B100BFFEE74FF0E020006995
:1035A00020F001004FF0E021086130BD0000002054
:1035B00018ED00E000E400E010B51348006840F0AA
:1035C00001001149086008464068104908400E494A
:1035D0004860084600680E4908400B4908600846E4
:1035E000006820F4802008600846406820F4FE004F
:1035F00048604FF41F008860FFF714FF4FF0006031
:103600000449086010BD0000001002400000FFF8EF
:10361000FFFFF6FE08ED00E021B1028842F0010252
:10362000028004E002884FF6FE731A400280704761
:1036300070B5002400220023058C4FF6FE7635403D
:103640000584028C8388048B4FF68F752C40B51E41
:103650002C400D882C43751E2A400D892A434D8825
:103660002A43144DA8420BD0134DA84208D0134D45
:10367000A84205D0124DA84202D0124DA84213D143
:103680004FF6F7752A404D892A434FF6FB752A40BD
:103690008D882A434FF6FF652B404FF6FF552B4090
:1036A0008D892B43CD892B4383800483CD888586E8
:1036B000028470BD002C01400034014000400140F4
:1036C00000440140004801400A46002101894FF6AC
:1036D0008F73194011430181704702894FF67F7340
:1036E0001A40028102890A430281704782884FF69C
:1036F0008F731A40828082880A43828070470289D1
:103700004FF6F8731A40028102890A43028170471A
:10371000002202881D4B98420ED01D4B98420BD0C0
:10372000B0F1804F08D01B4B984205D01A4B9842FD
:1037300002D01A4B984204D14FF68F731A404B882F
:103740001A43174B984207D0164B984204D04FF6B5
:10375000FF431A40CB881A4302808B8883850B88ED
:1037600003850A4B98420BD0094B984208D00E4B68
:10377000984205D00D4B984202D00D4B984201D192
:103780000B7A03860123838270470000002C0140DE
:10379000003401400004004000080040000C0040DC
:1037A000001000400014004000400140004401406F
:1037B0000048014002480068401C01490860704709
:1037C0006C0000200448006820B103480068401ED7
:1037D00001490860704700006800002010B500F043
:1037E000A1FC10BD10B540F225511B4800F069F84E
:1037F000D8B1194800F020F9C4B21848B0F8000454
:10380000C0F30E0040F2FF3188420EDA1349B1F8DE
:103810000014C1F30E00411C104AB2F8002461F3F9
:103820000E020E49A1F800240C5440F224410A482B
:1038300000F047F801280DD10848B0F8000420F442
:10384000004000F500400549A1F80004024800F0DE
:10385000F3F8C4B210BD000000480040D0180020AA
:1038600001F40072B2F5007F00D100BFCA430280AC
:10387000704710B50022002340F66A14A14200D11F
:1038800000BF0A1201249440A3B2DC43048010BD9F
:1038900021B1828942F40052828104E082894DF68E
:1038A000FF731A408281704702460020B1F5007F05
:1038B00000D100BF13880B400BB1012000E00020B5
:1038C000704770B50246002400230025002040F612
:1038D0006A16B14200D100BFC1F3421501F01F03C7
:1038E000012606FA03F3012D02D19689334006E042
:1038F000022D02D1168A334001E0968A33400C1221
:10390000012606FA04F41688344013B10CB10120E4
:1039100000E0002070BDF0B503460024002600251D
:10392000002040F66A17B94200D100BF1846C1F323
:10393000421401F01F06012707FA06F5012C01D1F8
:103940000C3004E0022C01D1103000E014301AB128
:1039500007682F43076002E00768AF430760F0BDC8
:103960002DE9F04786B005460E460024A24600BF6A
:10397000A1460027B08900B100BF2F462C8A4CF623
:10398000FF700440F08804432C82AC894EF6F3109B
:103990000440B08831890843718908430443AC81ED
:1039A000AC8A4FF6FF400440B0890443AC8201A8C2
:1039B000FEF7A2FB1F48874202D1DDF810A001E00C
:1039C000DDF80CA0A88900F4004040B10AEBCA0061
:1039D00000EB0A1031684900B0FBF1F807E00AEB90
:1039E000CA0000EB0A1031688900B0FBF1F86420CE
:1039F000B8FBF0F004012009642101FB1089A889BB
:103A000000F4004040B1322000EBC900B0FBF1F0FF
:103A100000F00700044308E0322000EB09106421A5
:103A2000B0FBF1F000F00F0004432C8106B0BDE8BC
:103A3000F08700000038014001468888C0F3080084
:103A40007047C1F30802828070470FB470B586B02A
:103A500006460CA8019073E00B9800785C281CD1F6
:103A60000B98401C0B9000786E2809D072280FD15B
:103A70000D213046FFF7E5FF0B98401C0B900BE043
:103A80000A213046FFF7DDFF0B98401C0B9003E046
:103A90000B98401C0B9000BF4BE00B98007825283A
:103AA00040D10B98401C0B900078642818D07328E4
:103AB00033D1019810C801900BE021783046FFF710
:103AC000C0FF00BF80213046FFF7EEFE0028F9D08E
:103AD000641C20780028F0D10B98401C0B9020E04B
:103AE000019820C801900A2202A9284602F080F815
:103AF00002AC0BE021783046FFF7A3FF00BF802126
:103B00003046FFF7D1FE0028F9D0641C2078002849
:103B1000F0D10B98401C0B9003E00B98401C0B90CD
:103B200000BF06E00B9810F8011B0B903046FFF722
:103B300088FF00BF80213046FFF7B6FE0028F9D08D
:103B40000B980078002887D106B070BC5DF814FB94
:103B500000BFFEE770B504460D4629462046FFF734
:103B600070FF00BF80212046FFF79EFE0028F9D09D
:103B700070BD70B506460C46002500BF615D30463D
:103B8000FFF7E8FF6D1C605D0028F7D170BD0000F5
:103B90001FB501214120FEF79FFA0820ADF80C0067
:103BA00004208DF80F0003208DF80E0003A916489D
:103BB000FDF78CFB03210220FDF768FB0820019034
:103BC00000208DF808000C208DF8090001208DF8E8
:103BD0000A0001A8FDF740F90820FDF721F94FF48C
:103BE000C060FEF7B3F909208DF8000000208DF8C1
:103BF000010003208DF8020001208DF803006846C3
:103C0000FEF76CF91FBD0000001001400FB4054B1A
:103C100010B503A9044A029800F02CF810BC5DF816
:103C200014FB0000A5570008480100200FB4084B02
:103C300010B504A902AA039800F01CF8044602A9D2
:103C4000002000F077F9204610BC5DF814FB00005E
:103C5000353F000802E008C8121F08C1002AFAD147
:103C600070477047002001E001C1121F002AFBD1FC
:103C7000704700002DE9FF4F8DB09B460F4604466C
:103C8000002606E025280BD05A460F999047641C61
:103C9000761C20780028F5D111B03046BDE8F08FB1
:103CA0000025A8460122984900E0054314F8013F89
:103CB000203B02FA03F00842F7D120782E2817D1D2
:103CC00014F8010F45F004052A280ED06FF02F02DA
:103CD0002078A0F1300109290AD808EB880102EB0D
:103CE000410100EB0108641CF2E757F8048B641CE7
:103CF00020786C280DD004DC4C2812D06A2811D111
:103D000004E074280DD07A280CD10AE045F400159F
:103D100007E0617845F48015814202D1641C05F505
:103D20008015641C2278692A45D008DC002AB3D0AB
:103D3000582A69D0632A10D0642A08D13BE0702A3F
:103D400067D0732A13D0752A5CD0782A5CD01046CD
:103D50005A460F999047761CD3E017F8040B8DF85C
:103D6000000000208DF80100E946012003E057F82B
:103D7000049B4FF0FF3069074FF0000501D40AE0C3
:103D80006D1C45450DDA8542FADB19F8051000294E
:103D9000F6D106E06D1C8542FCDB19F80510002900
:103DA000F8D12E4404E019F8010B5A460F999047B8
:103DB0006D1EF8D2A5E00A200021CDE90801C5F367
:103DC000025002280DD001CFC117031E71F100036C
:103DD0000DDA4FF0000CD0EB0C006CEB01012D2341
:103DE00008E0FF1D27F00707F7E80201EDE72B05C4
:103DF00004D52B238DF8283001233BE0EB0739D085
:103E00002023F7E70A2000E010200021CDE9080177
:103E100007E01020002145F00405CDE908014FF02E
:103E20000808C5F3025002280FD001CF00214FF03F
:103E3000000A2B071FD5702A0DD0DDE908C38CF0CE
:103E4000100C5CEA030C0CD015E0FF1D27F00707EF
:103E5000F7E80201EBE740228DF828204FF0010A35
:103E60000BE050EA010306D030238DF828308DF89E
:103E7000292002239A46582A04D024A20DF12009B1
:103E80000B9209E026A2F9E7DDE90823FCF7E2F945
:103E90000B9B9B5C09F8013D50EA0102F4D1ADEBAC
:103EA000090020300890680701D44FF001080899F4
:103EB000884502DDA8EB010000E0002080460025D7
:103EC00006E00AA85A46405D0F9990476D1C761C83
:103ED0005545F6DB04E030205A460F999047761C92
:103EE000B8F10001A8F10108F5DC05E019F8010BB3
:103EF0005A460F999047761C0899481E0890002949
:103F0000F4DC641CC5E600000928010030313233BE
:103F10003435363738396162636465660000000005
:103F200030313233343536373839414243444546EF
:103F3000000000000A68531C0B60107070470000FE
:103F400010B596B0404A07CA13AB07C320223E49BA
:103F50000C310BA8FCF71AF9FDF774FA08B100BF91
:103F6000FEE7012139A0FDF79FFA4FF4487002F0F7
:103F700033F9012138A0FDF797FAC82002F02CF997
:103F8000012138A0FDF790FA01213AA0FDF78CFA43
:103F900001213BA0FDF788FA01213CA0FDF784FA3E
:103FA00001213DA0FDF780FA01213EA0FDF77CFA3A
:103FB00001213FA0FDF778FA012140A0FDF774FA36
:103FC000012142A0FDF770FA0BAA45A101A8FFF755
:103FD0002DFE012101A8FDF767FA01211BA0FDF7C5
:103FE00063FA4FF4487002F0F7F8012140A0FDF7A2
:103FF0005BFA642002F0F0F840A113A8FFF716FE68
:10400000FCF7B2F8C4B2234613AA3EA10BA8FFF7EF
:104010000DFE0BAA32A101A8FFF708FE012101A89D
:10402000FDF742FA012122A0FDF73EFA012123A06B
:10403000FDF73AFA012136A0FDF736FA002038499B
:10404000087016B010BD0000046F000841542B52D8
:10405000455345540D0A000041542B4F52474C0D17
:104060000A00000041542B56455253494F4E3F0D14
:104070000A00000041542B414444523F0D0A000005
:1040800041542B554152543F0D0A000041542B43DB
:104090004D4F44453F0D0A0041542B535441544564
:1040A0003F0D0A0041542B524F4C453D300D0A0044
:1040B00041542B494E49540D0A00000041542B43F2
:1040C0004C4153533D300D0A0000000041542B4930
:1040D0004E514D3D312C392C34380D0A0000000072
:1040E00041542B4E414D453D25730D0A0000000003
:1040F00041542B524F4C453D310D0A004D41535414
:1041000045520000484330355F25735F2564000049
:1041100041542B494E514D3D312C352C330D0A0065
:104120005801002010B510480088B0F5806F12DAF1
:1041300040F225510D48FFF7C4FB98B10B48FFF73B
:104140007BFC0B49084A1288885407480088401CA9
:104150000549088006E040F225510448FFF789FB35
:1041600000F076F810BD000070000020003801401B
:10417000AC14002070B50546012D01D1002070BDA2
:1041800001210948FCF7DBF90748FCF706F904466A
:10419000B4F5C06F01DA0120F1E700210248FCF715
:1041A000CEF90020EBE700000024014070B5044682
:1041B0000D4600202071401EE0622946204602F094
:1041C00047F808B1032070BD94F82E1294F82F021E
:1041D00041EA00204AF65521884201D00220F2E748
:1041E00094F86900010694F8680041EA004194F8E7
:1041F000670041EA002094F86610084320F07F40F1
:104200000D49884201D10020DDE794F885000106C0
:1042100094F8840041EA004194F8830041EA0020C8
:1042200094F88210084320F07F400349884201D16E
:104230000020C8E70120C6E746415400024600E0DE
:10424000521C107810B110788842F9D1107870475C
:1042500040F201400021064A118005E00022411E83
:1042600089B20846034B5A540028F7D17047000022
:1042700070000020AC1400200246891E5069801E88
:10428000884201D8002070479378906A01FB0300B0
:10429000F9E700002DE9F04780460C46A17EE07E5C
:1042A00041EA002010B10020BDE8F087207800F03E
:1042B0003F00401E00EB800101EBC0064FF00109FA
:1042C000002524E01A48405D205C1949495D2144DD
:1042D000497840EA0127B9F1000F11D0FF2E0BD227
:1042E000384600F0BDFF82463146761C38F8110092
:1042F00000F0B6FF824501D00020D5E7B94605E0C1
:104300004FF6FF70874201D00020CDE76D1C0D2DC8
:10431000D8D3207800F0400038B1B9F1000F04D0B4
:1043200038F8160008B10020BEE70120BCE7000005
:10433000AE6F00082DE9F04704468946B9F1000F39
:1043400006D1E76817B16069B84215D8012713E0B4
:104350004946204601F0F0FA0646022E02D201201C
:10436000BDE8F087701C08B93046F9E76069B042D3
:1043700001D93046F4E74F463D4600BF6D1C6069E9
:10438000A84204D80225BD4201D90020E8E7294609
:10439000204601F0D1FA064606B909E0701C08B1C2
:1043A000012E01D13046DBE7BD42E7D10020D7E73F
:1043B00000BF6FF070422946204602F09BF880460D
:1043C000B8F1000F08D1B9F1000F05D02A464946CF
:1043D000204602F08FF88046B8F1000F0BD1E5605F
:1043E0002069401C78B12069401E2061607940F04E
:1043F0000100607107E0B8F1010F02D14FF0FF300A
:1044000000E0012005462846AAE700002DE9F34F09
:1044100083B082460498D0F800B001E00BF1010BA4
:104420009BF800002F28F9D09BF800005C28F5D0FD
:10443000DAF81C9000252E4600BF3046761C1BF88B
:104440000040202C03DB2F2C01D05C2C00D11CE081
:10445000FF2D03D3062005B0BDE8F08FE4B20121A3
:10446000204600F0D7FE04460CB90620F3E7802C66
:1044700006DA21466BA0FFF7E1FE08B10620EAE765
:1044800028466D1C29F81040D7E700BF0BEB06014A
:1044900004980160202C01DA042000E00020074687
:1044A00008E0681E39F81040202C02D02E2C00D0D5
:1044B00002E06D1E002DF4D100BF0DB90620CAE741
:1044C000002029F815000B222021DAF8180001F04D
:1044D000B5FE002600E0761C39F816002028FAD038
:1044E00039F816002E28F6D00EB147F0030700E089
:1044F0006D1E25B1681E39F810002E28F8D14FF036
:104500000008CDF808800820019000BF3046761CD6
:1045100039F8104004B955E0202C03D02E2C04D1DA
:10452000AE4202D047F00307F0E7DDE90110884210
:1045300001D2AE4216D101980B2802D147F00307F1
:1045400040E0AE4201D047F00307AE4200D939E067
:104550002E46082002900B2001904FEA88604FEA17
:104560001068D3E7802C0BDB0021204600F052FEC0
:1045700004461CB1A4F180002D490C5C47F00207F1
:1045800000BF24B121462BA0FFF758FE18B15F24CD
:1045900047F003070FE0412C04DB5A2C02DC48F003
:1045A000020808E0612C06DB7A2C04DC48F00108E4
:1045B000A4F1200084B2DAF818300298411C02916C
:1045C0001C54A3E700BFDAF818000078E52803D1EF
:1045D0000520DAF8181008700198082803D14FEA6E
:1045E00088604FEA106808F00C000C2803D008F02F
:1045F0000300032801D147F0020707F0020058B971
:1046000008F00300012801D147F0100708F00C0062
:10461000042801D147F00807DAF81800C772002013
:1046200019E70000222A3A3C3E3F7C7F0000000050
:104630002E6F00082B2C3B3D5B5D000038B5044617
:104640004FF6FF704FF4A073F0223221009000204B
:10465000FDF700F80CB9312038BD012C01D1322012
:10466000FAE7022C01D13320F6E7042C01D13420E3
:10467000F2E7052C01D13520EEE7062C01D13620DA
:10468000EAE7082C01D13720E6E7092C01D13820D0
:10469000E2E70A2C01D13920DEE70D2C01D13020D0
:1046A000DAE70F2C01D14420D6E7032C01D14120B9
:1046B000D2E706A232210846FDF71EF807A24621DE
:1046C0003220FDF719F85820C6E70000494E505532
:1046D000542049532057524F4E470000504C4541FB
:1046E00053452052452D454E544552002DE9F04189
:1046F00004460E460021204600F0CDF90546EDB9EE
:10470000002700BF2169206801F0A2FD054605B120
:1047100013E060690078E52802D06069007820B96C
:10472000781C0746B04201D107E00027012120464E
:1047300000F07FF80546002DE4D000BF042D00D125
:1047400007252846BDE8F0812DE9F0470446002101
:10475000204600F0A0F9074617B13846BDE8F087BB
:104760004FF0FF09CA464FF6FF70208400BF216951
:10477000206801F06DFD074607B157E065692E78A6
:104780000EB9042752E0E87A00F03F08E52E05D084
:1047900008F0080040B1B8F10F0F05D04FF0FF0945
:1047A0004FF6FF7020843AE0B8F10F0F1CD1E0699A
:1047B00078B306F0400030B195F80DA026F0400621
:1047C000B146E08820844E450AD1687B504507D128
:1047D0002946E069FFF75EFD10B1A9F1010000E094
:1047E000FF2000F0FF091AE0B9F1000F05D12846BB
:1047F00001F0DAFF504500D118E0A069C07A00F05E
:10480000010038B90B222846A16901F0F7FC08B96C
:104810000CE004E04FF0FF094FF6FF702084002108
:10482000204600F006F80746002FA0D000BF38460B
:1048300094E72DE9F04104468846E088461CB0B272
:1048400008B1206910B90420BDE8F08121684889C9
:10485000C11700EBD1614911B6FBF1F201FB126106
:10486000002971D12069401C2061E06828B92068C6
:104870000089B04268D80420E6E721684889C1175A
:1048800000EBD1614911B6FBF1F122689278521E1A
:104890001140002958D1E168206801F04DF8054623
:1048A000012D01D80220CFE7681C08B90120CBE711
:1048B00020684069A84241D8B8F1000F01D1042016
:1048C000C2E7E1682068FFF735FD05460DB907200E
:1048D000BAE7012D01D10220B6E7681C08B9012012
:1048E000B2E7206801F0D4FF08B10120ACE72168ED
:1048F0004A8901F13000002101F0A0FC294620681E
:10490000FFF7BAFC2168C86200270EE00120216889
:104910000871206801F0BCFF08B1012094E720680D
:10492000C06A401C2168C8627F1C20688078B84239
:10493000ECD82068C06AC01B2168C862E5602946BF
:104940002068FFF799FC2061E68021684889C1173B
:1049500000EBD1614911B6FBF1F201FB1261226853
:10496000303202EB4111616100206DE72DE9FE4F0D
:104970000446D4F81880D4F81C900C2241466846AE
:1049800001F04FFC00BF9DF80B0000F0010020B3C8
:10499000002088F80B00E06101260CE033464A460F
:1049A0006946404600F010FF2046FFF7CDFE054661
:1049B00005B102E0761C642EF0D300BF642E02D154
:1049C0000720BDE8FE8F042D01D02846F9E79DF8A9
:1049D0000B0088F80B00C4F81C909DF80B0000F049
:1049E000020060B1002600E0761C39F816000028AD
:1049F000FAD106F119000D21B0FBF1F700E0012713
:104A000039462046FFF772FE054645BB781E071E55
:104A100025D0E088C11B204600F03DF80546F5B9D9
:104A2000A06901F0C1FE824600BF2169206801F043
:104A30000FFC054605B111E0FAB253466169E06921
:104A400000F028FE01202168087100212046FFF7B0
:104A5000F0FE054615B9781E071EE6D100BFC5B9A0
:104A60002169206801F0F4FB054695B92022002158
:104A7000606901F0E3FB0B22D4E9050101F0D1FBF1
:104A8000A069C07A00F018006169087301202168EC
:104A90000871284695E72DE9F04104460E46E68068
:104AA000A568012D03D020684069A84202D80220E1
:104AB000BDE8F0812DB920680078032801D1206875
:104AC000456A45B920680089B04201D80220EFE765
:104AD0002068476A24E021684889C11700EBD1614A
:104AE00049112268927801FB02F812E029462068F9
:104AF00000F022FF0546681C08B90120D8E7022D06
:104B000003D320684069A84201D80220D0E7A6EB71
:104B100008064645EAD229462068FFF7ADFB07465E
:104B2000E5600FB90220C3E721684889C11700EB8F
:104B3000D1614911B6FBF1F13944216121684889FD
:104B4000C11700EBD1614911B6FBF1F201FB126113
:104B50002268303202EB411161610020A8E770B594
:104B60000446012514B1012C09D107E0FEF728F80D
:104B700010B925F0010500E0012502E001E0012562
:104B800000BF00BF284670BD30B50346042013B1F6
:104B9000012B1CD11AE0A9B101290BD0022902D0A6
:104BA000032910D103E04FF4007414800BE00124BA
:104BB000146008E0084C646C074DAD6CB4FBF5F470
:104BC000146000E000BF00BF002002E001E004200C
:104BD00000BF00BF30BD00000C4100202DE9F047B0
:104BE000ADF5007D06460C4615461F464FF0040AFB
:104BF0004FF0000816B1012E41D13FE004F0030050
:104C000000B34FF0000913E02A466D1C01236946EA
:104C10000020FFF7E3FF8146B9F1000F00D00BE061
:104C20004FF4007269462046FBF7B0FA04F50074B1
:104C3000381EA7F10107E7D100BF48460DF5007DFA
:104C4000BDE8F08769023B464FF400722046FEF74C
:104C50007FF98046B8F1000F07D1FEF723FA8046AE
:104C600000BFFDF79EFF0028FBD1B8F1000F02D076
:104C70004FF0040A01E04FF0000A03E002E04FF0B9
:104C8000040A00BF00BF5046D8E70146012011B119
:104C9000012904D102E020F0010002E001E001203E
:104CA00000BF00BF70472DE9F047ADF5007D074616
:104CB0000C4615461E464FF0040A4FF0000826B970
:104CC00004200DF5007DBDE8F08717B1012F3ED11E
:104CD0003CE004F00300E8B14FF0000913E04FF4AA
:104CE000007221466846FBF751FA2A466D1C0123E3
:104CF00069460020FFF7D7FF8146B9F1000F00D0C9
:104D000005E004F50074301EA6F10106E7D100BFEE
:104D10004846D6E7690233464FF400722046FEF754
:104D2000F9F98046B8F1000F07D1FEF7D5F98046B2
:104D300000BFFDF736FF0028FBD1B8F1000F02D00D
:104D40004FF0040A01E04FF0000A03E002E04FF0E8
:104D5000040A00BF00BF5046B3E770B505462846B9
:104D600000F0F9F8044634B9284601F0BAFD0446CB
:104D70000CB900202860204670BD0000F7B582B055
:104D800016460398019001A800F07AFE0546002D12
:104D900002DA0B2005B0F0BD0E4850F825400CB1EA
:104DA00000202070029810B1002002990870094973
:104DB000029841F82500029808B1012E01D0002088
:104DC000E8E7002203A902A800F078FA074638466F
:104DD000E0E70000740000202DE9F743ADF50C7DFD
:104DE0000546164625B909200DF50F7DBDE8F0836F
:104DF0000020286006F01F0626F001028DA983A876
:104E000000F05CFA0746002F74D180A88990CDF895
:104E100028D283A88D9900F07DFC0746889C0FB9A5
:104E200004B9062706F01C0000285CD04FB1042FFF
:104E300003D183A8FFF79AFD074646F00806889C31
:104E400009E0E07A00F0110008B1072703E006F05E
:104E5000040000B10827002F55D106F008000028F3
:104E600051D000F009FE804684F80E804FEA1821E8
:104E7000E1734FEA184121744FEA1861617484F8B4
:104E800016804FEA1821E1754FEA184121764FEA62
:104E9000186161760020E072207700216177A177A8
:104EA000E1772146839800F017FF814600212046D4
:104EB00001F03FFC012083990871B9F1000F22D065
:104EC0008398D0F82C804946839801F0D7FB074699
:104ED000CFB9A9F101008399C8604146839801F0D8
:104EE000B7F907460FE077B9E07A00F0100010B18B
:104EF000042708E02DE006F0020020B1E07A00F07F
:104F0000010000B1072747B906F0080008B146F0D4
:104F100020068398C06AE8612C62D7B9AE71002080
:104F2000E8712146839800F0D7FE2861E07F0106F2
:104F3000A07F41EA0041607F41EA0020217F0843D1
:104F4000E8600020A860A861839828602868C0886D
:104F5000A880384648E72DE9F0410446204601F094
:104F6000C0FC0746002F4CD1A07900F0200000289B
:104F700047D0A07900F0400078B12168487801233B
:104F800004F12401A269FFF78EFE10B10120BDE8F3
:104F9000F081A07920F04000A071E169206801F063
:104FA00057F90746002F2CD1256AE87A40F02000F7
:104FB000E872207B2877A089010A6977E068010CF4
:104FC000A977E068010EE9772846216901F0B1FB75
:104FD00000F052FD0646AE75310AE975310C2976AE
:104FE000310E69760020A8740021E974A07920F0C0
:104FF0002000A071012021680871206801F0E4FB05
:1050000007463846C3E72DE9FF4F83B004461546EF
:105010009B46049801900020CBF80000204601F048
:1050200060FC0290029818B1029807B0BDE8F08FBA
:10503000E07908B1E079F8E7A07900F0020008B95A
:105040000720F2E7A0682844A168884200D2002522
:10505000CFE021684989A068B0FBF1F201FB1200A2
:1050600000287ED121684989A068B0FBF1F0216851
:105070008978491E084000F0FF0ABAF1000F1ED1DE
:10508000A06838B9276957B900212068FFF752F99D
:10509000074604E061692068FFF74CF9074607B945
:1050A000AAE0012F02D10220E071BEE7781C10B9FE
:1050B0000120E071B9E76761206900B92761A07933
:1050C00000F0400078B121684878012304F1240100
:1050D000A269FFF7E8FD10B10120E071A5E7A07912
:1050E00020F04000A07161692068FFF7C5F806460E
:1050F00016B90220E07198E7564420684089B5FB54
:10510000F0F9B9F1000F31D00AEB09002168897874
:10511000884203D920688078A0EB0A092168487882
:105120004B4632460199FFF7BEFD10B10120E071F8
:105130007BE7A069801B484511D2A069831B2068CA
:10514000B0F80AC0019803FB0C012068428904F101
:10515000240001F066F8A07920F04000A0712068DA
:1051600000E017E0408900FB09F835E0A069B04293
:105170000FD0D4E9020188420BD22168487801237C
:10518000324604F12401FFF729FD10B10120E0713E
:105190004BE7A66121684989A068B0FBF1F201FBE9
:1051A000120021684989A1EB0008A84500D9A8464A
:1051B00021684989A068B0FBF1F201FB120104F1FA
:1051C0002400084442460090019901F02AF8A07991
:1051D00040F04000A07100BF019840440190A068D9
:1051E0004044A060DBF800004044CBF80000A5EB91
:1051F0000805002D7FF42DAF00BFD4E902018842DD
:1052000001D9A068E060A07940F02000A0710020E2
:105210000BE7000010B50246802A01DA10461BE0B9
:1052200051B1FF2A01DD002304E0A2F180030B4C01
:1052300034F8133018460FE0002007E0074B33F82E
:105240001030934200D103E0431C98B28028F5DB74
:1052500000BF00F18003D8B210BD0000E86F000865
:1052600030B5802807DA612823DB7A2821DCA0F119
:105270002005A8B21DE00C2200234FF4F77400BFF4
:10528000E51A03EB55010B4D35F81150854200D15D
:105290000AE0084D35F81150854201DA0B4600E06E
:1052A0000C46551E2A1EEBD100BF12B1024D35F837
:1052B000110030BDE8700008C47400082DE9F74FF4
:1052C0008AB000210A9801600B9800F0D9FB099080
:1052D0000998002803DA0B200DB0BDE8F08FE949EA
:1052E000099851F820400CB90C20F5E70A980460A1
:1052F000207878B16078FFF7C8FC814609F001009A
:1053000040B90C9820B109F0040008B10A20E3E785
:105310000020E1E700202070099860706078FFF7B6
:105320001EFC814609F0010008B10320D4E70C9867
:1053300020B109F0040008B10A20CDE7607804F13B
:105340000A020221FFF720FC38B96089B0F5007F1E
:1053500003DB6089B0F5805F01DD0120BCE7002739
:1053600039462046FEF722FF0546012D01D09DBBA0
:1053700032E000261AE004F5F77000EB061898F802
:10538000040070B198F80B00010698F80A0041EA91
:10539000004198F8090041EA002098F808100843F5
:1053A00000E0002002A941F82600761C042EE2D37A
:1053B000002606B1761E00BF02A850F8267027B15D
:1053C00039462046FEF7F2FE00E0022005461DB1F8
:1053D000701C06460428EFD3032D01D101207BE782
:1053E0000DB10D2078E73B20015D94F83C0041EAC7
:1053F00000206189884201D00D206DE74620015DC3
:1054000094F8470041EA002ABAF1000F0ED194F84F
:105410005700010694F8560041EA004194F85500FF
:1054200041EA002094F8541040EA010AC4F818A098
:105430004020005DE070E078012804D0E078022888
:1054400001D00D2048E7E0780AFB00FA3D20005D1E
:10545000A070A07818B1A078411E084008B10D20B6
:105460003AE74120015D94F8420041EA00202081A2
:105470006089C11700EBD1614911228992FBF1F3D8
:1054800001FB132109B10D2026E74320015D94F8AB
:10549000440041EA00200890089870B994F853003D
:1054A000010694F8520041EA004194F8510041EAA3
:1054B000002094F85010084308903E20015D94F8B5
:1054C0003F0041EA00200190019808B90D2003E750
:1054D0006089C11700EBD1614911228992FBF1F279
:1054E0000199514411440791DDE90710884201D226
:1054F0000D20F1E6DDE90710401AA178B0FBF1FBC1
:10550000BBF1000F01D10D20E6E6012540F6F67053
:10551000834500D302254FF6F670834500D303255B
:105520000BF102006061E76101983844206207983E
:105530003844A062032D16D1208908B10D20CBE696
:1055400094F85F00010694F85E0041EA004194F887
:105550005D0041EA002094F85C10084360626069D5
:105560008000069014E0208908B90D20B4E6206A76
:1055700050446062022D02D16069400007E0207D46
:1055800000F00100616901EB410100EB5100069060
:105590006089401E069908446189B0FBF1F0A16959
:1055A000884201D90D2097E64FF0FF302061E0607E
:1055B00080206071032D5AD194F8601094F8610036
:1055C00041EA0020012852D1791C204600F040FE1B
:1055D000E8BB0020607194F82E1294F82F0241EA83
:1055E00000204AF65521884241D13320005D010652
:1055F0003220005D41EA00413120005D41EA002097
:1056000094F8301008432049884230D194F81702AA
:10561000010694F8160241EA004194F8150241EAA5
:10562000002094F814120843184988421FD194F8B6
:105630001B02010694F81A0241EA004194F819028B
:1056400041EA002094F818120843206100E00EE0BF
:1056500094F81F02010694F81E0241EA004194F8F2
:105660001D0241EA002094F81C120843E0602570F6
:1056700007480088401C80B205490880E08000206F
:105680002AE60000740000205252614172724161AA
:105690007C000020F0B504461D464D730F27CF72E5
:1056A00000270F738F76BC4681F81BC0571E07EB8F
:1056B000870C0CEBC706002738463B4600BF4FF669
:1056C000FF77B84203D03746761C34F81700DFF86E
:1056D00040C01CF803C001F80C000712DFF830C00E
:1056E0001CF803C08C448CF8017008B94FF6FF70A9
:1056F0005F1C3B460D2FE2D34FF6FF77B84202D036
:1057000034F816700FB942F040020A70F0BD000084
:10571000AE6F00082DE9F3410446019800782F2868
:1057200003D0019800785C2802D10198401C0190B8
:105730000020A06001980078202807D20021204690
:10574000FFF7A9F905460020606128E000BF01A924
:105750002046FEF75BFE054605B11FE02046FEF73A
:10576000F3FF0546A069C67A3DB1042D04D100BF00
:1057700006F0040000B9052510E006F0040000B1B1
:105780000CE06769F87A00F0100008B9052505E01B
:105790003946206800F0A0FAA060D8E700BF28468C
:1057A000BDE8FC8170B504460D46E1B20548FEF740
:1057B00048F900BF80210348FEF776F80028F9D0A9
:1057C000204670BD003801402DE9FF4F83B081466F
:1057D00090461D460B224846049900F022FD052DF7
:1057E00018D92F4611E038F802BB00240BE05846C8
:1057F00067F35F0007464FEA6B0B07F4803008B190
:105800001D484740641C102CF1D3B8F80000002854
:10581000E9D13D46072400BF05F00F0000F1300A32
:10582000BAF1390F03DD0AF1070000F0FF0A204644
:10583000641E01A901F800A02D09002DECD17E20E5
:105840000855002600E0761CA64203D219F806008F
:105850002028F8D100BF082C04D22046641C01A9DE
:10586000085C00E020203146761C09F80100082E73
:10587000F1D307B0BDE8F08F2110010004202B4ABE
:10588000106008210AE001208840294A926890436C
:1058900018B1A1F1080040B27047491C0C29F2DB95
:1058A0000420224A121F10608002214A5061082100
:1058B00009E0012088401E4A9268904310B1081FF9
:1058C00040B2E9E7491C0C29F3DB4FF48050184A39
:1058D00010612020174A1060082108E0012088404C
:1058E000134A9268904308B148B2D5E7491C0C2985
:1058F000F4DB20200F4A121F10608020121D106060
:10590000082109E001208840094A9268904310B1BB
:10591000081D40B2C0E7491C0C29F3DB8020054A72
:10592000121F10604FF0FF30B6E700001414014062
:1059300000100140140801402DE9F05F04460D46B7
:10594000022D02D36069A84202D84FF001098FE00E
:105950004FF0FF392078012804D002283CD00328DA
:105960007ED157E02F4607EB57076089B7FBF0F071
:10597000216A00EB010A5146204600F069FC00B1A3
:1059800075E038467F1C6189B0FBF1F201FB120122
:1059900004F1300010F801806089B7FBF0F0216A53
:1059A00000EB010A5146204600F052FC00B15EE0D7
:1059B0006089B7FBF0F100FB117104F13000405C2D
:1059C00048EA002805F0010010B14FEA181001E084
:1059D000C8F30B0081464AE0B4F80AA00AEBDA707B
:1059E0004010B5FBF0F0216A00EB010B5946204650
:1059F00000F02EFC00B13AE068006189B0FBF1F2E2
:105A000001FB120104F130000E183078717840EA81
:105A100001292CE0B4F80AA04FEAEA700AEB907072
:105A20008010B5FBF0F0216A00EB010B59462046CF
:105A300000F00EFC00B11AE0A8006189B0FBF1F2A1
:105A400001FB120104F130000E18F0780006B17865
:105A500040EA0140717840EA01203178084300E0D3
:105A600002E020F0704902E04FF0010900BF00BFE2
:105A70004846BDE8F09F00000048704700002146FE
:105A800070B502464FF0FF301568E5B1116800E0CF
:105A9000491C0D78202D02D30D783A2DF8D10D78C0
:105AA0003A2D0FD1146814F8015BA5F130030A2BCD
:105AB00007D28C4205D1022B03D218464D1C294631
:105AC000156070BD002000BFFBE7F0B503460C4633
:105AD0001546002221460BE00F781046521C1F5439
